:03000000020100FA
:03000B0002013BB4
:03001B000201518E
:10010000758130758911753014D2AF12810C1201CE
:100110006312018C12811CB40EFA12810C1201635D
:100120001201B712811CB40EFA758C4C758A0075D9
:100130003014D2A9D28C80FE80FE00758C4C758A5A
:1001400000D5300C75301412022F12025412026EB8
:1001500032758D4C758B00D56008D295D297C2ABA5
:10016000C28E3274481281027448128102743A12AB
:100170008102744D128102744D128102743A12810F
:100180000274531281027453128102227E00742081
:100190001281020EBE08F778017F231201FF743A24
:1001A00012810278027F591201FF743A128102789B
:1001B000037F591201FF22742012810274411281BF
:1001C00002744C1281027441128102745212810233
:1001D000744D1281027420128102742012810278FF
:1001E000047F231201FF743A12810278057F5912AD
:1001F00001FF743A12810278067F591201FF221220
:10020000811CC0E012811CC0E012021AF6C39F409C
:1002100004600280EAE612810422D020D021D0F0CE
:10022000D0E0540FC453F00F45F0C021C020227815
:1002300003BB59117B007802BA590A7A007801B9D8
:100240002303790022E6540FB40907E654F0241082
:10025000F622062212810CE9128104743A128102FC
:10026000EA128104743A128102EB12810422ECC377
:10027000997020EDC39A701BEEC39B7016C295C295
:1002800097208E0E758D4C758B0075603CD2ABD26D
:040290008E22222276
:00000001FF
