:03000000020100FA
:10000B00758C4C758A00D530097530141201AF12FE
:03001B0001D432DB
:10010000758130758901753014D2AF12810C1201DE
:100110002912811CB40EFA758C4C758A0075301446
:10012000D2A9D28C80FE80FE0074481281027448ED
:10013000128102743A128102744D128102744D12BE
:100140008102743A12810274531281027453128133
:10015000027E0074201281020EBE08F712811CC0BC
:10016000E012811CC0E012019AF9128104743A1263
:10017000810212811CC0E012811CC0E012019AFAB7
:10018000128104743A12810212811CC0E012811C97
:10019000C0E012019AFB12810422D006D007D0F0F1
:1001A000D0E0540FC453F00F45F0C007C0062278CA
:1001B00003BB59117B007802BA590A7A007801B959
:1001C0002303790022E6540FB40907E654F0241003
:1001D000F622062212810CE9128104743A1281027D
:0E01E000EA128104743A128102EB12810422A9
:00000001FF
