:03000000020100FA
:03000B0002013BB4
:03001B000201518E
:10010000758130758911753014D2AF12810C1201CE
:100110006312018C12811CB40EFA12810C1201635D
:100120001201B112811CB40EFA758C4C758A0075DF
:100130003014D2A9D28C80FE80FE00758C4C758A5A
:1001400000D5300C75301412021A12023F120259F7
:1001500032758D4C758B00D56008D295D297C2ABA5
:10016000C28E3274481281027448128102743A12AB
:100170008102744D128102744D128102743A12810F
:100180000274531281027453128102227E00742081
:100190001281020EBE08F778011201F3743A12813F
:1001A0000278021201F3743A12810278031201F309
:1001B0002274201281027441128102744C12810255
:1001C00074411281027452128102744D12810274C0
:1001D00020128102742012810278041201F3743A11
:1001E00012810278051201F3743A12810278061224
:1001F00001F32212811CC0E012811CC0E012020532
:10020000F612810422D006D007D0F0D0E0540FC4FB
:1002100053F00F45F0C007C006227803BB59117B8D
:10022000007802BA590A7A007801B92303790022CA
:10023000E6540FB40907E654F02410F62206221201
:10024000810CE9128104743A128102EA1281047469
:100250003A128102EB12810422ECC3997020EDC3A3
:100260009A701BEEC39B7016C295C297208E0E75B6
:0F0270008D4C758B0075603CD2ABD28E22222252
:00000001FF
